:100000000C9472000C9493000C9493000C94930045
:100010000C9493000C9493000C9493000C94930014
:100020000C9493000C9493000C9493000C94930004
:100030000C9493000C9493000C9493000C949300F4
:100040000C9493000C9493000C9493000C949300E4
:100050000C9493000C9493000C9493000C949300D4
:100060000C9493000C9493000C9493000C949300C4
:100070000C9493000C9493000C9493000C949300B4
:100080000C9493000C9493000C9493000C949300A4
:100090000C9493000C9493000C9493000C94930094
:1000A0000C9493000C9493000C9493000C94930084
:1000B0000C9493000C9493000C9493000C94930074
:1000C0000C9493000C9493000C9493000C94930064
:1000D0000C9493000C9493000C9493000C94930054
:1000E0000C94930011241FBECFEFD1E2DEBFCDBF31
:1000F00000E00CBF12E0A0E0B2E0E8E3F3E000E0D3
:100100000BBF02C007900D92A030B107D9F712E0E3
:10011000A0E0B2E001C01D92A030B107E1F70E945B
:10012000E5000C949A010C9400003B9A43980895C2
:1001300081B18F6081B982B1807F82B9EAE0F1E05C
:10014000808188618083EBE0F1E080818861808339
:1001500008950E9498000E949500089586B18860D5
:1001600088B9089586B1877F88B9089592B1907F44
:100170008F70982B92B9089586E00E94B60008957A
:1001800089E00E94B600089585E00E94B6000895B7
:100190008AE00E94B600089584E00E94B6000895A7
:1001A00082E00E94B600089581E00E94B6000895A2
:1001B00088E00E94B600089580E00E94B60008958D
:1001C000F8940E94A900789408950E94E0000E948B
:1001D000AE008FEF9FEFACE281509040A040E1F77E
:1001E00000C000000E94B2008FEF9FEFACE2815090
:1001F0009040A040E1F700C000000E94BC008FEFDB
:100200009FEFA6E881509040A040E1F700C00000B9
:100210000E94DC008FEF9FE7A6E181509040A04054
:10022000E1F700C000000E94AE008FEF9FEFACE24C
:1002300081509040A040E1F700C000000E94B20051
:100240008FEF9FEFACE281509040A040E1F700C0FB
:1002500000000E94C4008CEC9CECA5E28150904010
:10026000A040E1F700C00E94DC008FEF9FE7A6E10D
:1002700081509040A040E1F700C00000CAE4D0E007
:100280000E94BC008FEF9FE3A2E081509040A0400D
:10029000E1F700C000000E94D0008FEF9FE3A2E0D2
:1002A00081509040A040E1F700C00000219741F745
:1002B0000E94C4008CEC9CECA5E281509040A040D0
:1002C000E1F700C00E94DC008FEF9FE7A6E18150BC
:1002D0009040A040E1F700C000000E94BC008FEFFA
:1002E0009FEFA6E881509040A040E1F700C00000D9
:1002F0000E94DC008FEF9FE7A6E181509040A04074
:10030000E1F700C000000E94AE008FEF9FEFACE26B
:1003100081509040A040E1F700C000000E94B20070
:100320008FEF9FEFACE281509040A040E1F700C01A
:0803300000004DCFF894FFCF4F
:00000001FF
