:100000000C9472000C9493000C9493000C94930045
:100010000C9493000C9493000C9493000C94930014
:100020000C9493000C9493000C9493000C94930004
:100030000C9493000C9493000C9493000C949300F4
:100040000C9493000C9493000C9493000C949300E4
:100050000C9493000C9493000C9493000C949300D4
:100060000C9493000C9493000C9493000C949300C4
:100070000C9493000C9493000C9493000C949300B4
:100080000C9493000C9493000C9493000C949300A4
:100090000C9493000C9493000C9493000C94930094
:1000A0000C9493000C9493000C9493000C94930084
:1000B0000C9493000C9493000C9493000C94930074
:1000C0000C9493000C9493000C9493000C94930064
:1000D0000C9493000C9493000C9493000C94930054
:1000E0000C94930011241FBECFEFD1E2DEBFCDBF31
:1000F00000E00CBF12E0A0E0B2E0EEEEF2E000E0C3
:100100000BBF02C007900D92A030B107D9F712E0E3
:10011000A0E0B2E001C01D92A030B107E1F70E945B
:10012000D8000C9475010C94000081B18F6081B9E6
:1001300082B1807F82B9EAE0F1E0808188618083CA
:10014000EBE0F1E080818861808308950E94950052
:10015000089592B1907F8F70982B92B9089586E0A0
:100160000E94A900089589E00E94A900089585E0F1
:100170000E94A90008958AE00E94A900089584E0E1
:100180000E94A900089582E00E94A900089581E0DC
:100190000E94A900089588E00E94A900089580E0C7
:1001A0000E94A9000895F8940E94A60078940895EA
:1001B0000E94D3000E94AF008FEF98E0ADE3815022
:1001C0009040A040E1F700C000000E94CF008FE9FE
:1001D00096E8A1E081509040A040E1F700C0000007
:1001E0000E94BB008FE894EAA4E381509040A040B5
:1001F000E1F700C000000E94CF008FE996E8A1E07F
:1002000081509040A040E1F700C000000E94AF0084
:100210008FE29AE7A6E481509040A040E1F700C049
:1002200000000E94CF008FE996E8A1E08150904045
:10023000A040E1F700C000000E94B7008FE39DE1FD
:10024000AAE281509040A040E1F700C000000E9467
:10025000CF008FE996E8A1E081509040A040E1F7FF
:1002600000C000000E94AF008FE29AE7A6E4815030
:100270009040A040E1F700C000000E94CF008FE94D
:1002800096E8A1E081509040A040E1F700C0000056
:100290000E94BB008FE39DE1AAE281509040A04004
:1002A000E1F700C000000E94CF008FE996E8A1E0CE
:1002B00081509040A040E1F700C000000E94AF00D4
:1002C0008FEF98E0ADE381509040A040E1F700C08F
:1002D00000000E94CF008FE996E8A1E08150904095
:0E02E000A040E1F700C0000065CFF894FFCF0A
:00000001FF
